RN1526                468241000082002000000026000000001001056556                  1   00
RN29001               46824100008200200000002600000000100105656                   1   00
RN1526                468241000082002000000056000000001001056556                  1   00
RN29001               46824100008200200000005600000000100105656                   1   00
RN1526                468241000082002000000057000000001001056556                  1   00
RN29001               46824100008200200000005700000000100105656                   1   00
RN1032                468241000082002000000237000000001001013958                  1   00
RN1033                46824100008200200000023700000000100101398                   1   00
RN1032                468241000082002000000238000000001001013958                  1   00
RN1033                46824100008200200000023800000000100101398                   1   00
RN1034                468241000082002000000247000000001001151410/89               1   00
PN0014                468241000402002000000249000000001001151406/94               1   00
PN0027                468241000402002000000249000000001001151406/94               1   00
PN0059                468241000402002000000249000000001001151306/94               1   00
PN0225W               468241000402002000000249000000001001151306/94               1   00
RN1033                468241000082002000000285000000001001151311/87               1   00
RN1033                468241000082002000000286000000001001151311/87               1   00
PN0059                468241000402002000000291000000001001151301/90               1   00
PN0059                46824100040200200000029100000000100102623                   1   00
PN0165                468241000402002000000292000000001001151303/94               1   00
PN0401                468241000402002000000292000000001001151403/94               1   00
PN0401W               468241000402002000000292000000001001151403/94               1   00
PN0165S               468241003371002000000292000000001001151303/94               1   00
RN1402                468241000082002000000376000000001001151406.2012             1   00
RN1567                468241000082002000000376000000001001151307.2012             1   00
PN25003               468241000402002000000376000000001001151307.2012             1   00
PN3450                468241000402002000000376000000001001151406.2012             1   00
FN23001               468241001419002000000376000000001001151406.2012             1   00
RN1402DSET            468241003369002000000376000000001001151406.2012             1   00
RN1567DSET            468241003369002000000376000000001001151307.2012             1   00
PN25003S              468241003371002000000376000000001001151307.2012             1   00
PN3450S               468241003371002000000376000000001001151406.2012             1   00
RN1402                468241000082002000000378000000001001151402.2013             1   00
RN1567                468241000082002000000378000000001001151309.2012             1   00
PN25003               468241000402002000000378000000001001151309.2012             1   00
PN3450                468241000402002000000378000000001001151402.2013             1   00
FN23001               468241001419002000000378000000001001151402.2013             1   00
RN1402DSET            468241003369002000000378000000001001151402.2013             1   00
RN1567DSET            468241003369002000000378000000001001151309.2012             1   00
PN25003S              468241003371002000000378000000001001151309.2012             1   00
PN3450S               468241003371002000000378000000001001151402.2013             1   00
RN1746H               468241000082002000000434000000001001056587                  1   00
RN1857H               468241000082002000000434000000001001056546                  1   00
RN1857H               468241000082002000000434000000001001086419                  1   00
PN0019W               468241000402002000000434000000001001056587                  1   00
PN0473                468241000402002000000434000000001001056546                  1   00
PN0019WS              468241003371002000000434000000001001056587                  1   00
RN1209                46824100008200200000047100000000100107115                   1   00
RN1403                468241000082002000000471000000001001071132                  1   00
PN3233                468241000402002000000471000000001001071132                  1   00
PN3469                46824100040200200000047100000000100107115                   1   00
RN1209DSET            46824100336900200000047100000000100107115                   1   00
RN1403DSET            468241003369002000000471000000001001071132                  1   00
PN3233S               468241003371002000000471000000001001071132                  1   00
PN3469S               46824100337100200000047100000000100107115                   1   00
RN1402                46824100008200200000047600000000100100484615A121            1   00
RN1404                46824100008200200000047600000000100100484615A035            1   00
FN0625                4682410014190020000004760000000010010048MN161157            1   00
FN23001               46824100141900200000047600000000100100484800A022            1   00
RN1402DSET            46824100336900200000047600000000100100484615A121            1   00
RN1404DSET            46824100336900200000047600000000100100484615A035            1   00
RN1402                46824100008200200000050000000000100100484615A121            1   00
RN1404                46824100008200200000050000000000100100484615A035            1   00
FN0625                4682410014190020000005000000000010010048MN161157            1   00
FN23001               46824100141900200000050000000000100100484800A022            1   00
RN1402DSET            46824100336900200000050000000000100100484615A121            1   00
RN1404DSET            46824100336900200000050000000000100100484615A035            1   00
RN1377                46824100008200200000052000000000100111971LJ                 1   00
RN1803                46824100008200200000052000000000100111971LW                 1   00
PN0348W               46824100040200200000052000000000100111971LJ                 1   00
PN0559W               46824100040200200000052000000000100111971LW                 1   00
RN1377DSET            46824100336900200000052000000000100111971LJ                 1   00
PN0348WS              46824100337100200000052000000000100111971LJ                 1   00
PN0559WS              46824100337100200000052000000000100111971LW                 1   00
PN0462W               4682410004020020000006970000000010010955304                 1   00
PN0563W               4682410004020020000006970000000010010955283                 1   00
PN0462W               4682410004020020000007040000000010010955304                 1   00
PN0563W               4682410004020020000007040000000010010955283                 1   00
PN0462W               4682410004020020000007130000000010010955304                 1   00
PN0563W               4682410004020020000007130000000010010955283                 1   00
PN0462W               4682410004020020000007140000000010010955304                 1   00
PN0563W               4682410004020020000007140000000010010955283                 1   00
PN0462W               4682410004020020000007170000000010010955304                 1   00
PN0563W               4682410004020020000007170000000010010955283                 1   00
PN0462W               4682410004020020000007300000000010010955304                 1   00
PN0563W               4682410004020020000007300000000010010955283                 1   00
PN0462W               4682410004020020000007310000000010010955304                 1   00
PN42001W              4682410004020020000007310000000010010955340                 1   00
PN0462W               4682410004020020000007320000000010010955304                 1   00
PN42001W              4682410004020020000007320000000010010955340                 1   00
RN1524                46824100008200200000077900000000100110335                   1   00
RN1524DSET            46824100336900200000077900000000100110335                   1   00
RN1728                468241000082002000000800000000001001056711                  1   00
RN1732                468241000082002000000800000000001001056711                  1   00
RN1940                468241000082002000000800000000001001056761                  1   00
PN0484                468241000402002000000800000000001001056761                  1   00
PN0488                468241000402002000000800000000001001056711                  1   00
PN0488W               468241000402002000000800000000001001056711                  1   00
RN1728DSET            468241003369002000000800000000001001056711                  1   00
RN1732DSET            468241003369002000000800000000001001056711                  1   00
RN1940DSET            468241003369002000000800000000001001056761                  1   00
PN0484S               468241003371002000000800000000001001056761                  1   00
PN0488S               468241003371002000000800000000001001056711                  1   00
RN1524                46824100008200200000081600000000100110335                   1   00
RN1524DSET            46824100336900200000081600000000100110335                   1   00
RN1402                468241000082002000000836000000001001151406.2012             1   00
RN1567                468241000082002000000836000000001001151307.2012             1   00
PN25003               468241000402002000000836000000001001151307.2012             1   00
PN3450                468241000402002000000836000000001001151406.2012             1   00
FN23001               468241001419002000000836000000001001151406.2012             1   00
RN1402DSET            468241003369002000000836000000001001151406.2012             1   00
RN1567DSET            468241003369002000000836000000001001151307.2012             1   00
PN25003S              468241003371002000000836000000001001151307.2012             1   00
PN3450S               468241003371002000000836000000001001151406.2012             1   00
PN0391                4682410004020020000008500000000010011592J60,J67             1   00
PN0391S               4682410033710020000008500000000010011592J60,J67             1   00
RN34001               4682410000820020000008530000000010011592J67                 1   00
RN34002               4682410000820020000008530000000010011592J67                 1   00
RN34003               4682410000820020000008530000000010011592J60                 1   00
RN34004               4682410000820020000008530000000010011592J17,J60             1   00
PN0391                4682410004020020000008530000000010011592J60,J67             1   00
RN34001DSET           4682410033690020000008530000000010011592J67                 1   00
RN34002DSET           4682410033690020000008530000000010011592J67                 1   00
PN0391S               4682410033710020000008530000000010011592J60,J67             1   00
RN34001               4682410000820020000009080000000010011592J67                 1   00
RN34002               4682410000820020000009080000000010011592J67                 1   00
RN34003               4682410000820020000009080000000010011592J60                 1   00
RN34004               4682410000820020000009080000000010011592J17,J60             1   00
PN0391                4682410004020020000009080000000010011592J60,J67             1   00
RN34001DSET           4682410033690020000009080000000010011592J67                 1   00
RN34002DSET           4682410033690020000009080000000010011592J67                 1   00
PN0391S               4682410033710020000009080000000010011592J60,J67             1   00
RN34003               4682410000820020000009270000000010011592J60                 1   00
RN34004               4682410000820020000009270000000010011592J17,J60             1   00
PN0391                4682410004020020000009270000000010011592J60,J67             1   00
PN34002               4682410004020020000009270000000010011592J17                 1   00
PN0391S               4682410033710020000009270000000010011592J60,J67             1   00
RN1285                46824100008200200000095200000000100105700                   1   00
RN1285                4682410000820020000009520000000010010026A023718             1   00
RN1285                46824100008200200000095200000000200105701                   1   00
RN1285                4682410000820020000009520000000020010026A050547             1   00
PN0029                46824100040200200000095200000000100105700                   1   00
PN0029                4682410004020020000009520000000010010025A023719             1   00
PN0029                46824100040200200000095200000000200105701                   1   00
PN0029                4682410004020020000009520000000020010025A050548             1   00
PN0285                46824100040200200000095200000000100105700                   1   00
PN0285                4682410004020020000009520000000010010026A023718             1   00
PN0285                46824100040200200000095200000000200105701                   1   00
PN0285                4682410004020020000009520000000020010026A050547             1   00
RN34001               4682410000820020000009860000000010011592J67                 1   00
RN34002               4682410000820020000009860000000010011592J67                 1   00
RN34003               4682410000820020000009860000000010011592J60                 1   00
RN34004               4682410000820020000009860000000010011592J17,J60             1   00
PN0391                4682410004020020000009860000000010011592J60,J67             1   00
RN34001DSET           4682410033690020000009860000000010011592J67                 1   00
RN34002DSET           4682410033690020000009860000000010011592J67                 1   00
PN0391S               4682410033710020000009860000000010011592J60,J67             1   00
PN0717                4682410004020020000010720000000010010649JE5, Exc. HDT Brakes1   00
PN51008               4682410004020020000010720000000010010649J55 HDT Brakes      1   00
PN0717                4682410004020020000010760000000010010649JE5, Exc. HDT Brakes1   00
PN51008               4682410004020020000010760000000010010649J55 HDT Brakes      1   00
RN1718                4682410000820020000010980000000010011542S212A               1   00
RN1718DSET            4682410033690020000010980000000010011542S212A               1   00
RN1718                4682410000820020000011030000000010011542S212A               1   00
RN1718DSET            4682410033690020000011030000000010011542S212A               1   00
PN0717                4682410004020020000011040000000010010649JE5, Exc. HDT Brakes1   00
PN51008               4682410004020020000011040000000010010649J55 HDT Brakes      1   00
PN0717                4682410004020020000011050000000010010649JE5, Exc. HDT Brakes1   00
PN51008               4682410004020020000011050000000010010649J55 HDT Brakes      1   00
PN0105W               46824100040200200000138700000000100100254A-R-000 001        1   00
PN0506                46824100040200200000138700000000100100264A-P-150 000        1   00
PN0105W               46824100040200200000144900000000100100254A-R-000 001        1   00
PN0506                46824100040200200000144900000000100100264A-P-150 000        1   00
RN1317                468241000082002000001611000000001001115916                  1   00
RN1416                468241000082002000001611000000001001115917                  1   00
PN2444                468241000402002000001611000000001001115917                  1   00
PN2517                468241000402002000001611000000001001115916                  1   00
PN2444S               468241003371002000001611000000001001115917                  1   00
RN1316                468241000082002000001661000000001001115916                  1   00
RN1740                468241000082002000001661000000001001115917                  1   00
PN0353W               468241000402002000001661000000001001115916                  1   00
PN33001W              468241000402002000001661000000001001115917                  1   00
RN1316                468241000082002000001703000000001001115916                  1   00
RN1740                468241000082002000001703000000001001115917                  1   00
PN0353W               468241000402002000001703000000001001115916                  1   00
PN33001W              468241000402002000001703000000001001115917                  1   00
RN1295                46824100008200200000186200000000100111971LP                 1   00
PN0108W               46824100040200200000186200000000100111971LU                 1   00
PN0160W               46824100040200200000186200000000100111971LP                 1   00
PN0278                46824100040200200000186200000000100111971LE                 1   00
RN1729                4682410000820020000028620000000010010025DH000001            1   00
PN0461                4682410004020020000028620000000010010026CH999999            1   00
PN0463                4682410004020020000028620000000010010025DH000001            1   00
FN0708                4682410014190020000028620000000010010026CH999999            1   00
RN1729DSET            4682410033690020000028620000000010010025DH000001            1   00
PN0461S               4682410033710020000028620000000010010026CH999999            1   00
PN0463S               4682410033710020000028620000000010010025DH000001            1   00
RN1729                4682410000820020000028790000000010010025DH000001            1   00
PN0461                4682410004020020000028790000000010010026CH999999            1   00
PN0463                4682410004020020000028790000000010010025DH000001            1   00
FN0708                4682410014190020000028790000000010010026CH999999            1   00
RN1729DSET            4682410033690020000028790000000010010025DH000001            1   00
PN0461S               4682410033710020000028790000000010010026CH999999            1   00
PN0463S               4682410033710020000028790000000010010025DH000001            1   00
RN1729                4682410000820020000028810000000010010025DH000001            1   00
PN0461                4682410004020020000028810000000010010026CH999999            1   00
PN0463                4682410004020020000028810000000010010025DH000001            1   00
FN0708                4682410014190020000028810000000010010026CH999999            1   00
RN1729DSET            4682410033690020000028810000000010010025DH000001            1   00
PN0461S               4682410033710020000028810000000010010026CH999999            1   00
PN0463S               4682410033710020000028810000000010010025DH000001            1   00
PN0468                468241000402002000002898000000001001056587                  1   00
PN2702                468241000402002000002898000000001001056546                  1   00
PN2702S               468241003371002000002898000000001001056546                  1   00
PN0468                468241000402002000002899000000001001056587                  1   00
PN2702                468241000402002000002899000000001001056546                  1   00
PN2702S               468241003371002000002899000000001001056546                  1   00
PN0468                468241000402002000002918000000001001056587                  1   00
PN2702                468241000402002000002918000000001001056546                  1   00
PN2702S               468241003371002000002918000000001001056546                  1   00
PN0468                468241000402002000002935000000001001056587                  1   00
PN2702                468241000402002000002935000000001001056546                  1   00
PN2702S               468241003371002000002935000000001001056546                  1   00
RN1443                468241000082002000003084000000001001090432                  1   00
RN1473                468241000082002000003084000000001001090432                  1   00
RN1578                468241000082002000003084000000001001071132                  1   00
RN21002               468241000082002000003084000000001001071132                  1   00
RN1443DSET            468241003369002000003084000000001001090432                  1   00
RN1473DSET            468241003369002000003084000000001001090432                  1   00
RN1578DSET            468241003369002000003084000000001001071132                  1   00
RN21002DSET           468241003369002000003084000000001001071132                  1   00
RN1443                468241000082002000003085000000001001090432                  1   00
RN1473                468241000082002000003085000000001001090432                  1   00
RN1578                468241000082002000003085000000001001071132                  1   00
RN1443DSET            468241003369002000003085000000001001090432                  1   00
RN1473DSET            468241003369002000003085000000001001090432                  1   00
RN1578DSET            468241003369002000003085000000001001071132                  1   00
PN0395W               468241000402002000003251000000001001071132                  1   00
PN0395W               4682410004020020000032510000000010010565176                 1   00
PN0395W               468241000402002000003251000000002001056523                  1   00
PN0491                468241000402002000003251000000001001071132                  1   00
PN0491                4682410004020020000032510000000010010565113                 1   00
PN0395WS              468241003371002000003251000000001001071132                  1   00
PN0395WS              4682410033710020000032510000000010010565176                 1   00
PN0395WS              468241003371002000003251000000002001056523                  1   00
PN0491S               468241003371002000003251000000001001071132                  1   00
PN0491S               4682410033710020000032510000000010010565113                 1   00
PN0395W               4682410004020020000032570000000010010565176                 1   00
PN0491                4682410004020020000032570000000010010565113                 1   00
PN0395WS              4682410033710020000032570000000010010565176                 1   00
PN0491S               4682410033710020000032570000000010010565113                 1   00
FN6687                468241000070002000003422000000001001071450                  1   00
RN1011                468241000082002000003422000000001001071450                  1   00
RN1106                46824100008200200000342200000000100107140                   1   00
FN6704                46824100141900200000342200000000100107140                   1   00
RN1011DSET            468241003369002000003422000000001001071450                  1   00
FN6687                468241000070002000003423000000001001071450                  1   00
RN1011                468241000082002000003423000000001001071450                  1   00
RN1106                46824100008200200000342300000000100107140                   1   00
FN6704                46824100141900200000342300000000100107140                   1   00
RN1011DSET            468241003369002000003423000000001001071450                  1   00
FN6687                468241000070002000003424000000001001071450                  1   00
RN1011                468241000082002000003424000000001001071450                  1   00
RN1106                46824100008200200000342400000000100107140                   1   00
FN6704                46824100141900200000342400000000100107140                   1   00
RN1011DSET            468241003369002000003424000000001001071450                  1   00
FN6701                46824100007000200000342500000000100107140                   1   00
RN1011                46824100008200200000342500000000100107140                   1   00
RN1106                468241000082002000003425000000001001071450                  1   00
FN6704                468241001419002000003425000000001001071450                  1   00
RN1011DSET            46824100336900200000342500000000100107140                   1   00
FN6687                46824100007000200000342600000000100107140                   1   00
RN1011                46824100008200200000342600000000100107140                   1   00
RN1106                468241000082002000003426000000001001071450                  1   00
FN6704                468241001419002000003426000000001001071450                  1   00
RN1011DSET            46824100336900200000342600000000100107140                   1   00
FN6687                468241000070002000003427000000001001071450                  1   00
RN1011                468241000082002000003427000000001001071450                  1   00
RN1106                46824100008200200000342700000000100107140                   1   00
FN6704                46824100141900200000342700000000100107140                   1   00
RN1011DSET            468241003369002000003427000000001001071450                  1   00
FN6687                468241000070002000003428000000001001071450                  1   00
RN1011                468241000082002000003428000000001001071450                  1   00
RN1106                46824100008200200000342800000000100107140                   1   00
FN6704                46824100141900200000342800000000100107140                   1   00
RN1011DSET            468241003369002000003428000000001001071450                  1   00
FN6687                468241000070002000003429000000001001071450                  1   00
RN1011                468241000082002000003429000000001001071450                  1   00
RN1106                46824100008200200000342900000000100107140                   1   00
FN6704                46824100141900200000342900000000100107140                   1   00
RN1011DSET            468241003369002000003429000000001001071450                  1   00
RN1097                46824100008200200000345300000000100105141                   1   00
RN1097                468241000082002000003453000000001001151301/92               1   00
RN1115                46824100008200200000345300000000100105141                   1   00
RN1115                468241000082002000003453000000001001151401/92               1   00
PN1077                46824100040200200000345300000000100105141                   1   00
PN1256                468241000402002000003453000000001001051451                  1   00
PN1077S               46824100337100200000345300000000100105141                   1   00
RN1339                468241000082002000003505000000001001004843512-20040         1   00
RN1398                4682410000820020000035130000000010010608102                 1   00
RN1543                4682410000820020000035130000000010010608102                 1   00
RN2070                4682410000820020000035130000000010010608101                 1   00
PN0558                4682410004020020000035130000000010010608102                 1   00
PN0558W               4682410004020020000035130000000010010608102                 1   00
PN32002               4682410004020020000035130000000010010608102                 1   00
PN32003               4682410004020020000035130000000010010608101                 1   00
PN32004               4682410004020020000035130000000010010608101                 1   00
RN2070DSET            4682410033690020000035130000000010010608101                 1   00
RN2126DSET            4682410033690020000035130000000010010608101                 1   00
RN1006                468241000082002000003525000000001001071152                  1   00
RN1006                468241000082002000003525000000001001151411/89               1   00
RN1006                468241000082002000003526000000001001071152                  1   00
RN1006                468241000082002000003526000000001001151411/89               1   00
PN1077                468241000402002000003527000000001001115913                  1   00
PN1281                468241000402002000003527000000001001115914                  1   00
PN1077                468241000402002000003528000000001001115913                  1   00
PN1281                468241000402002000003528000000001001115914                  1   00
PN1077                468241000402002000003529000000001001115913                  1   00
PN1281                468241000402002000003529000000001001115914                  1   00
PN1077                468241000402002000003530000000001001115913                  1   00
PN1281                468241000402002000003530000000001001115914                  1   00
PN1077                468241000402002000003531000000001001115913                  1   00
PN1281                468241000402002000003531000000001001115914                  1   00
PN1077                468241000402002000003532000000001001115913                  1   00
PN1281                468241000402002000003532000000001001115914                  1   00
RN1006                468241000082002000003533000000001001071152                  1   00
RN1006                468241000082002000003533000000001001151411/89               1   00
PN1077                468241000402002000003534000000001001115913                  1   00
PN1281                468241000402002000003534000000001001115914                  1   00
PN1077                468241000402002000003535000000001001115913                  1   00
PN1281                468241000402002000003535000000001001115914                  1   00
RN1306                468241000082002000003536000000001001060350                  1   00
RN1398                468241000082002000003536000000001001060350                  1   00
RN1646                46824100008200200000353600000000100106030                   1   00
PN0092                46824100040200200000353600000000100106030                   1   00
PN0092W               46824100040200200000353600000000100106030                   1   00
PN0511                468241000402002000003536000000001001060350                  1   00
PN0513                46824100040200200000353600000000100106030                   1   00
PN0518W               468241000402002000003536000000001001060350                  1   00
RN1008                468241000082002000003547000000001001151408/93               1   00
RN1009                468241000082002000003547000000001001151308/93               1   00
PN1228                4682410004020020000035530000000010010955275                 1   00
PN1322                4682410004020020000035530000000010010955255                 1   00
PN1228S               4682410033710020000035530000000010010955275                 1   00
FN8905                468241001419002000003597000000001001151301.1995             1   00
RN1478                468241000082002000003620000000001001151307.1993             1   00
RN1478                468241000082002000003621000000001001151308.1993             1   00
RN1478                468241000082002000003622000000001001151307.1993             1   00
RN1150                468241000082002000003623000000001001151308.1992             1   00
RN1488                468241000082002000003623000000001001151308.1992             1   00
PN1228                468241000402002000003623000000001001151408.1992             1   00
PN1252                468241000402002000003623000000001001151408.1992             1   00
PN1324                468241000402002000003623000000001001151308.1992             1   00
PN1326                468241000402002000003623000000001001151308.1992             1   00
RN1150DSET            468241003369002000003623000000001001151308.1992             1   00
RN1488DSET            468241003369002000003623000000001001151308.1992             1   00
PN1228S               468241003371002000003623000000001001151408.1992             1   00
PN1324S               468241003371002000003623000000001001151308.1992             1   00
RN1070                468241000082002000003624000000001001151308.1996             1   00
RN1461                468241000082002000003624000000001001151408.1996             1   00
RN1461                468241000082002000003624000000001001060813                  1   00
RN1532                468241000082002000003624000000001001151408.1996             1   00
RN1532                468241000082002000003624000000001001060812                  1   00
FN2285                4682410000700020000036250000000010010649AISIN               1   00
FN2354                4682410000700020000036250000000010010649LUCAS               1   00
RN1058                468241000082002000003625000000001001095425                  1   00
RN1059                468241000082002000003625000000001001095428                  1   00
RN1058DSET            468241003369002000003625000000001001095425                  1   00
FN2285                4682410000700020000036270000000010010649AISIN               1   00
FN2354                4682410000700020000036270000000010010649LUCAS               1   00
RN1058                468241000082002000003627000000001001095425                  1   00
RN1059                468241000082002000003627000000001001095428                  1   00
RN1058DSET            468241003369002000003627000000001001095425                  1   00
FN2285                4682410000700020000036280000000010010649AISIN               1   00
FN2354                4682410000700020000036280000000010010649LUCAS               1   00
FN2285                4682410000700020000036300000000010010649AISIN               1   00
FN2354                4682410000700020000036300000000010010649LUCAS               1   00
RN1232                468241000082002000003631000000001001151302/94               1   00
FN2285                4682410000700020000036320000000010010649AISIN               1   00
FN2354                4682410000700020000036320000000010010649LUCAS               1   00
RN1058                46824100008200200000363200000000100110335                   1   00
RN1059                468241000082002000003632000000001001103332                  1   00
RN1058DSET            46824100336900200000363200000000100110335                   1   00
FN2285                4682410000700020000036330000000010010649AISIN               1   00
FN2354                4682410000700020000036330000000010010649LUCAS               1   00
RN1657                468241000082002000003692000000001001027365                  1   00
RN1798                468241000082002000003692000000001001027314                  1   00
PN0440                468241000402002000003692000000001001027365                  1   00
PN0797                468241000402002000003692000000001001027314                  1   00
FN0696                468241001419002000003692000000001001027365                  1   00
RN1547                468241000082002000003784000000001001064916''                1   00
RN1547                468241000082002000003784000000001001090415                  1   00
RN1549                468241000082002000003784000000001001056587                  1   00
RN1562                468241000082002000003784000000001001064915''                1   00
RN1563                468241000082002000003784000000001001056546                  1   00
RN1563                468241000082002000003784000000001001090415                  1   00
PN0537                468241000402002000003784000000001001064915''                1   00
PN11001               468241000402002000003784000000001001064916''                1   00
PN11001               468241000402002000003784000000001001090415                  1   00
PN0537S               468241003371002000003784000000001001064915''                1   00
PN0059                4682410004020020000038430000000010010122TEVES               1   00
PN0165                4682410004020020000038430000000010010122BREMBO              1   00
PN0165S               4682410033710020000038430000000010010122BREMBO              1   00
RN1402                46824100008200200000384400000000100100484615A121            1   00
RN1404                46824100008200200000384400000000100100484615A035            1   00
FN0625                4682410014190020000038440000000010010048MN161157            1   00
FN23001               46824100141900200000384400000000100100484800A022            1   00
RN1402DSET            46824100336900200000384400000000100100484615A121            1   00
RN1404DSET            46824100336900200000384400000000100100484615A035            1   00
PN0014                468241000402002000003846000000001001151406/94               1   00
PN0027                468241000402002000003846000000001001151406/94               1   00
PN0059                468241000402002000003846000000001001151306/94               1   00
PN0225W               468241000402002000003846000000001001151306/94               1   00
RN1232                468241000082002000003847000000001001151308/95               1   00
RN1232                468241000082002000003848000000001001151308/95               1   00
PN1228                4682410004020020000038480000000010010090w/o SUPER STRUT SUSP1   00
PN1362                4682410004020020000038480000000010010090w/SUPER STRUT SUSPEN1   00
PN1228S               4682410033710020000038480000000010010090w/o SUPER STRUT SUSP1   00
RN1232                468241000082002000003850000000001001151302/94               1   00
RN1232                468241000082002000003851000000001001151302/94               1   00
FN0633                468241001419002000003855000000001001151308/94               1   00
PN1324                468241000402002000003856000000001001115916                  1   00
PN1360                468241000402002000003856000000001001115917                  1   00
PN1361                468241000402002000003856000000001001115917                  1   00
PN1363                468241000402002000003856000000001001115916                  1   00
PN1324S               468241003371002000003856000000001001115916                  1   00
PN1363S               468241003371002000003856000000001001115916                  1   00
RN1783                4682410000820020000039770000000010010565113                 1   00
RN1782DSET            4682410033690020000039770000000010010565113                 1   00
RN1306                468241000082002000003980000000001001151409.2009             1   00
RN1306                468241000082002000003980000000002001151310.2009             1   00
RN1306                46824100008200200000398000000000200106030                   1   00
RN1543                468241000082002000003980000000001001151310.2009             1   00
RN1543                468241000082002000003980000000001001060350                  1   00
FN0559                468241001419002000003980000000001001151310.2009             1   00
FN0559                468241001419002000003980000000001001060350                  1   00
FN0560                468241001419002000003980000000001001151409.2009             1   00
FN0560                468241001419002000003980000000002001151310.2009             1   00
FN0560                46824100141900200000398000000000200106030                   1   00
FN1251                468241000070002000004112000000001001071450                  1   00
RN1043                468241000082002000004112000000001001071450                  1   00
RN1233                46824100008200200000411200000000100107140                   1   00
DN1318                468241000123002000004112000000001001071450                  1   00
PN2210                46824100040200200000411200000000100107140                   1   00
FN1170                468241000070002000004194000000001001071450                  1   00
FN1198                46824100007000200000419400000000100107140                   1   00
FN1170                468241000070002000004195000000001001071450                  1   00
FN1198                46824100007000200000419500000000100107140                   1   00
RN1036                468241000082002000004235000000001001151410/91               1   00
RN1583                468241000082002000004235000000001001151310/91               1   00
PN2201                468241000402002000004235000000001001151410/91               1   00
PN2824                468241000402002000004235000000001001151310/91               1   00
PN2201S               468241003371002000004235000000001001151410/91               1   00
RN1039                468241000082002000004264000000001001151309/94               1   00
PN2180                468241000402002000004264000000001001151309/94               1   00
PN2188                468241000402002000004264000000001001151409/94               1   00
RN1040                468241000082002000004268000000001001071132                  1   00
RN1817                46824100008200200000426800000000100107115                   1   00
PN2130                46824100040200200000426800000000100107115                   1   00
PN2176                46824100040200200000426800000000100107115                   1   00
PN2180                468241000402002000004268000000001001071132                  1   00
PN2214                468241000402002000004268000000001001071132                  1   00
RN1039                468241000082002000004269000000001001151309/94               1   00
PN2180                468241000402002000004269000000001001151309/94               1   00
PN2188                468241000402002000004269000000001001151409/94               1   00
RN1039                468241000082002000004270000000001001151309/94               1   00
PN2180                468241000402002000004270000000001001151309/94               1   00
PN2188                468241000402002000004270000000001001151409/94               1   00
RN1039                468241000082002000004304000000001001151409/91               1   00
RN1146                468241000082002000004304000000001001151309/91               1   00
PN2176                468241000402002000004304000000001001151409/91               1   00
PN2201                468241000402002000004304000000001001151309/91               1   00
PN2201S               468241003371002000004304000000001001151309/91               1   00
FN1174                4682410000700020000043140000000010010090Mistral             1   00
FN1225                4682410000700020000043140000000010010090Terrano II          1   00
FN1225                468241000070002000004314000000001001151408/99               1   00
FN22001               4682410000700020000043140000000010010090Terrano II          1   00
FN22001               468241000070002000004314000000001001151308/99               1   00
PN2213                4682410004020020000043140000000010010090Terrano II          1   00
PN2344                4682410004020020000043140000000010010090Mistral             1   00
DN1629                468241000123002000004351000000001001071450                  1   00
DN1629                46824100012300200000435100000000100110607                   1   00
RN1772                468241000082002000004418000000001001060875                  1   00
RN1773                4682410000820020000044180000000010011542S212A               1   00
RN1905SET             468241000082002000004418000000001001060874                  1   00
PN0385W               468241000402002000004418000000001001060874                  1   00
PN0512                468241000402002000004418000000001001060875                  1   00
PN0545                4682410004020020000044180000000010011542S212A               1   00
PN32001               468241000402002000004481000000001001060879                  1   00
RN1772                468241000082002000004515000000001001060875                  1   00
RN1773                4682410000820020000045150000000010011542S212A               1   00
RN1905SET             468241000082002000004515000000001001060874                  1   00
PN0385W               468241000402002000004515000000001001060874                  1   00
PN0512                468241000402002000004515000000001001060875                  1   00
PN0545                4682410004020020000045150000000010011542S212A               1   00
FN11825               468241000070002000004579000000001001151408/97               1   00
FN11907               468241000070002000004579000000001001151308/97               1   00
PN0634                468241000402002000004579000000001001151308/97               1   00
PN0821                468241000402002000004579000000001001151408/97               1   00
FN11825               468241000070002000004580000000001001151408/97               1   00
FN11907               468241000070002000004580000000001001151308/97               1   00
PN0634                468241000402002000004580000000001001151308/97               1   00
PN0821                468241000402002000004580000000001001151408/97               1   00
PN0081                4682410004020020000046000000000010010025358322              1   00
PN0111                4682410004020020000046000000000010010026358321              1   00
PN0081                4682410004020020000046010000000010010025358322              1   00
PN0111                4682410004020020000046010000000010010026358321              1   00
PN0081                4682410004020020000046020000000010010025358322              1   00
PN0111                4682410004020020000046020000000010010026358321              1   00
PN0081                4682410004020020000046030000000010010025358322              1   00
PN0111                4682410004020020000046030000000010010026358321              1   00
RN1085                46824100008200200000461300000000100100258D-V-169696         1   00
PN0017                46824100040200200000461300000000100100258D-V-168350         1   00
PN0018                46824100040200200000461300000000100100268D-V-169695         1   00
PN0019W               46824100040200200000461300000000100100258D-V-168351         1   00
PN0023W               46824100040200200000461300000000100100258D-V-169696         1   00
RN1085DSET            46824100336900200000461300000000100100258D-V-169696         1   00
PN0019WS              46824100337100200000461300000000100100258D-V-168351         1   00
PN0017                46824100040200200000461400000000100100268D-V-168 350        1   00
PN0019W               46824100040200200000461400000000100100258D-V-168 351        1   00
RN1085                46824100008200200000461800000000100100258D-V-169696         1   00
PN0017                46824100040200200000461800000000100100258D-V-168350         1   00
PN0018                46824100040200200000461800000000100100268D-V-169695         1   00
PN0019W               46824100040200200000461800000000100100258D-V-168351         1   00
PN0023W               46824100040200200000461800000000100100258D-V-169696         1   00
RN1085DSET            46824100336900200000461800000000100100258D-V-169696         1   00
PN0019WS              46824100337100200000461800000000100100258D-V-168351         1   00
PN0165                4682410004020020000046350000000010011548BREMBO              1   00
PN0165S               4682410033710020000046350000000010011548BREMBO              1   00
RN1725                4682410000820020000046640000000010010649BR1, BR2, BR3, BR6  1   00
RN1726                4682410000820020000046640000000010010649BR1, BR2, BR3, BR6  1   00
RN2163                4682410000820020000046640000000010010649BRY                 1   00
RN2171                4682410000820020000046640000000010010649BRY                 1   00
RN1725DSET            4682410033690020000046640000000010010649BR1, BR2, BR3, BR6  1   00
RN1726DSET            4682410033690020000046640000000010010649BR1, BR2, BR3, BR6  1   00
RN1075                468241000082002000004683000000001001151404.05.2001          1   00
RN1389                468241000082002000004683000000001001151307.05.2001          1   00
PN0300W               468241000402002000004683000000001001151404.05.2001          1   00
PN0340W               468241000402002000004683000000001001151307.05.2001          1   00
RN1075                468241000082002000004714000000001001151401.05.2001          1   00
RN1389                468241000082002000004714000000001001151301.05.2001          1   00
PN0300W               468241000402002000004714000000001001151401.05.2001          1   00
PN0340W               468241000402002000004714000000001001151301.05.2001          1   00
RN1075                468241000082002000004715000000001001151401.05.2001          1   00
RN1389                468241000082002000004715000000001001151301.05.2001          1   00
PN0300W               468241000402002000004715000000001001151401.05.2001          1   00
PN0340W               468241000402002000004715000000001001151301.05.2001          1   00
FN2285                4682410000700020000047290000000010010649AISIN               1   00
FN2354                4682410000700020000047290000000010010649LUCAS               1   00
RN1058                468241000082002000004729000000001001095425                  1   00
RN1059                468241000082002000004729000000001001095428                  1   00
RN1058DSET            468241003369002000004729000000001001095425                  1   00
FN2285                4682410000700020000047300000000010010649AISIN               1   00
FN2354                4682410000700020000047300000000010010649LUCAS               1   00
FN2285                4682410000700020000047310000000010010649AISIN               1   00
FN2354                4682410000700020000047310000000010010649LUCAS               1   00
RN1058                468241000082002000004731000000001001095425                  1   00
RN1059                468241000082002000004731000000001001095428                  1   00
RN1058DSET            468241003369002000004731000000001001095425                  1   00
FN2285                4682410000700020000047320000000010010649AISIN               1   00
FN2354                4682410000700020000047320000000010010649LUCAS               1   00
PN32001               468241000402002000004767000000001001060879                  1   00
FN2285                4682410000700020000047750000000010010649AISIN               1   00
FN2354                4682410000700020000047750000000010010649LUCAS               1   00
RN1058                46824100008200200000477500000000100110335                   1   00
RN1059                468241000082002000004775000000001001103332                  1   00
RN1058DSET            46824100336900200000477500000000100110335                   1   00
FN2285                4682410000700020000047760000000010010649AISIN               1   00
FN2354                4682410000700020000047760000000010010649LUCAS               1   00
RN1058                46824100008200200000477600000000100110335                   1   00
RN1059                468241000082002000004776000000001001103332                  1   00
RN1058DSET            46824100336900200000477600000000100110335                   1   00
FN8905                468241001419002000004778000000001001151301.1995             1   00
FN1251                468241000070002000004779000000001001071450                  1   00
RN1043                468241000082002000004779000000001001071450                  1   00
RN1233                46824100008200200000477900000000100107140                   1   00
DN1318                468241000123002000004779000000001001071450                  1   00
PN2210                46824100040200200000477900000000100107140                   1   00
FN8905                468241001419002000004812000000001001151301.1995             1   00
RN1174                468241000082002000004959000000001001103360                  1   00
RN1348                468241000082002000004959000000001001103318                  1   00
RN1412                468241000082002000004959000000001001103360                  1   00
PN0052                468241000402002000004959000000001001103318                  1   00
PN0377                468241000402002000004959000000001001103360                  1   00
FN0644                468241001419002000004959000000001001103360                  1   00
FN11009               468241001419002000004959000000001001103318                  1   00
RN1348DSET            468241003369002000004959000000001001103318                  1   00
RN1412DSET            468241003369002000004959000000001001103360                  1   00
PN0052S               468241003371002000004959000000001001103318                  1   00
RN1174                468241000082002000004960000000001001103360                  1   00
RN1348                468241000082002000004960000000001001103318                  1   00
RN1412                468241000082002000004960000000001001103360                  1   00
PN0052                468241000402002000004960000000001001103318                  1   00
PN0377                468241000402002000004960000000001001103360                  1   00
FN11004               468241001419002000004960000000001001103360                  1   00
FN11006               468241001419002000004960000000001001103318                  1   00
RN1348DSET            468241003369002000004960000000001001103318                  1   00
RN1412DSET            468241003369002000004960000000001001103360                  1   00
PN0052S               468241003371002000004960000000001001103318                  1   00
DN1503                468241000123002000004962000000001001071454                  1   00
RN1078                46824100008200200000505200000000100106030                   1   00
RN32002               468241000082002000005052000000001001060350                  1   00
RN1078                46824100008200200000505300000000100106030                   1   00
RN32002               468241000082002000005053000000001001060350                  1   00
PN0019W               468241000402002000005089000000001001056587                  1   00
PN0381                468241000402002000005089000000001001056546                  1   00
PN0019WS              468241003371002000005089000000001001056587                  1   00
RN1089                468241000082002000005196000000001001132098                  1   00
RN1375                468241000082002000005196000000001001132197                  1   00
PN8264                468241000402002000005196000000001001132098                  1   00
PN8265                468241000402002000005196000000001001132197                  1   00
RN1089DSET            468241003369002000005196000000001001132098                  1   00
PN8264S               468241003371002000005196000000001001132098                  1   00
RN1089                468241000082002000005197000000001001132098                  1   00
RN1375                468241000082002000005197000000001001132197                  1   00
PN8264                468241000402002000005197000000001001132098                  1   00
PN8265                468241000402002000005197000000001001132197                  1   00
RN1089DSET            468241003369002000005197000000001001132098                  1   00
PN8264S               468241003371002000005197000000001001132098                  1   00
RN1089                468241000082002000005201000000001001132098                  1   00
RN1375                468241000082002000005201000000001001132197                  1   00
PN8264                468241000402002000005201000000001001132098                  1   00
PN8265                468241000402002000005201000000001001132197                  1   00
RN1089DSET            468241003369002000005201000000001001132098                  1   00
PN8264S               468241003371002000005201000000001001132098                  1   00
FN6701                468241000070002000005217000000001001151409/98               1   00
FN6880                468241000070002000005217000000001001151310/98               1   00
PN0017                46824100040200200000530700000000100100268D-V-168350         1   00
PN0019W               46824100040200200000530700000000100100258D-V-168351         1   00
PN0019WS              46824100337100200000530700000000100100258D-V-168351         1   00
PN0017                46824100040200200000530800000000100100268D-V-168 350        1   00
PN0019W               46824100040200200000530800000000100100258D-V-168 351        1   00
PN0017                46824100040200200000531100000000100100268D-V-168 350        1   00
PN0019W               46824100040200200000531100000000100100258D-V-168 351        1   00
PN0019WS              46824100337100200000531100000000100100258D-V-168 351        1   00
PN0017                46824100040200200000531500000000100100268D-X-199 999        1   00
PN0019W               46824100040200200000531500000000100100258D-X-200 001        1   00
PN0081                4682410004020020000053600000000010010025358322              1   00
PN0111                4682410004020020000053600000000010010026358321              1   00
PN0081                4682410004020020000053610000000010010025358322              1   00
PN0111                4682410004020020000053610000000010010026358321              1   00
PN0081                4682410004020020000053620000000010010025358322              1   00
PN0111                4682410004020020000053620000000010010026358321              1   00
RN1097                468241000082002000005399000000001001090432                  1   00
RN1115                468241000082002000005399000000001001071132                  1   00
RN1097                46824100008200200000540000000000100105141                   1   00
PN1077                46824100040200200000540000000000100105141                   1   00
PN1256                468241000402002000005400000000001001051451                  1   00
PN1077S               46824100337100200000540000000000100105141                   1   00
RN1268                468241000082002000005401000000001001151408.2015             1   00
RN22002               468241000082002000005401000000001001151309.2015             1   00
RN1268DSET            468241003369002000005401000000001001151408.2015             1   00
RN22002DSET           468241003369002000005401000000001001151309.2015             1   00
PN0017                46824100040200200000540900000000100100264D-X-004999         1   00
PN0019W               46824100040200200000540900000000100100254D-X-005001         1   00
PN0105W               46824100040200200000540900000000100100264D-X-004999         1   00
PN0138W               46824100040200200000540900000000100100254D-X-005001         1   00
PN0138W               46824100040200200000540900000000100111971LX                 1   00
PN0019WS              46824100337100200000540900000000100100254D-X-005001         1   00
RN1971                46824100008200200000541000000000100100254D-X-005001         1   00
RN1971                46824100008200200000541000000000100111971LX                 1   00
PN0017                46824100040200200000541000000000100100264D-X-004999         1   00
PN0019W               46824100040200200000541000000000100100254D-X-005001         1   00
PN0105W               46824100040200200000541000000000100100264D-X-004999         1   00
PN0138W               46824100040200200000541000000000100100254D-X-005001         1   00
PN0138W               46824100040200200000541000000000100111971LX                 1   00
PN0019WS              46824100337100200000541000000000100100254D-X-005001         1   00
RN1402                468241000082002000005514000000001001151402.2013             1   00
RN1567                468241000082002000005514000000001001151309.2012             1   00
PN25003               468241000402002000005514000000001001151309.2012             1   00
PN3450                468241000402002000005514000000001001151402.2013             1   00
FN23001               468241001419002000005514000000001001151402.2013             1   00
RN1402DSET            468241003369002000005514000000001001151402.2013             1   00
RN1567DSET            468241003369002000005514000000001001151309.2012             1   00
PN25003S              468241003371002000005514000000001001151309.2012             1   00
PN3450S               468241003371002000005514000000001001151402.2013             1   00
RN1402                468241000082002000005517000000001001151402.2013             1   00
RN1567                468241000082002000005517000000001001151309.2012             1   00
PN25003               468241000402002000005517000000001001151309.2012             1   00
PN3450                468241000402002000005517000000001001151402.2013             1   00
FN23001               468241001419002000005517000000001001151402.2013             1   00
RN1402DSET            468241003369002000005517000000001001151402.2013             1   00
RN1567DSET            468241003369002000005517000000001001151309.2012             1   00
PN25003S              468241003371002000005517000000001001151309.2012             1   00
PN3450S               468241003371002000005517000000001001151402.2013             1   00
RN1112                46824100008200200000551900000000100100725                   1   00
RN1380                46824100008200200000551900000000100100725                   1   00
RN1647                46824100008200200000551900000000100100724                   1   00
RN1800                46824100008200200000551900000000100100724                   1   00
PN0355                46824100040200200000551900000000100100725                   1   00
PN0361                46824100040200200000551900000000100100724                   1   00
RN1291                468241000082002000005545000000001001151409/97               1   00
PN0027W               468241000402002000005545000000001001151409/97               1   00
PN0401                468241000402002000005545000000001001151309/97               1   00
PN0401W               468241000402002000005545000000001001151309/97               1   00
PN0461                468241000402002000005575000000001001056587                  1   00
PN0463                468241000402002000005575000000001001056546                  1   00
PN0461S               468241003371002000005575000000001001056587                  1   00
PN0463S               468241003371002000005575000000001001056546                  1   00
RN1193                468241000082002000005607000000001001115915                  1   00
RN1194                468241000082002000005607000000001001115916                  1   00
RN1373                468241000082002000005607000000001001115915                  1   00
RN25001               468241000082002000005607000000001001115916                  1   00
RN1193DSET            468241003369002000005607000000001001115915                  1   00
RN1194DSET            468241003369002000005607000000001001115916                  1   00
PN0145W               468241000402002000005610000000001001151401.06.2000          1   00
PN0461                468241000402002000005614000000001001056587                  1   00
PN0463                468241000402002000005614000000001001056546                  1   00
PN0461S               468241003371002000005614000000001001056587                  1   00
PN0463S               468241003371002000005614000000001001056546                  1   00
RN1193                468241000082002000005640000000001001115915                  1   00
RN1194                468241000082002000005640000000001001115916                  1   00
RN1373                468241000082002000005640000000001001115915                  1   00
RN25001               468241000082002000005640000000001001115916                  1   00
RN1193DSET            468241003369002000005640000000001001115915                  1   00
RN1194DSET            468241003369002000005640000000001001115916                  1   00
RN1075                46824100008200200000567400000000100100267M-1-530 756        1   00
RN1389                46824100008200200000567400000000100100257M-2-500 001        1   00
PN0300W               46824100040200200000567400000000100100267M-1-530 756        1   00
PN0340W               46824100040200200000567400000000100100257M-2-500 001        1   00
RN1075                46824100008200200000567500000000100100267M-1-530 756        1   00
RN1389                46824100008200200000567500000000100100257M-2-500 001        1   00
PN0300W               46824100040200200000567500000000100100267M-1-530 756        1   00
PN0340W               46824100040200200000567500000000100100257M-2-500 001        1   00
FN2285                4682410000700020000056850000000010010649AISIN               1   00
FN2354                4682410000700020000056850000000010010649LUCAS               1   00
RN1058                468241000082002000005685000000001001095425                  1   00
RN1059                468241000082002000005685000000001001095428                  1   00
RN1058DSET            468241003369002000005685000000001001095425                  1   00
FN2285                4682410000700020000056860000000010010649AISIN               1   00
FN2354                4682410000700020000056860000000010010649LUCAS               1   00
RN1058                468241000082002000005686000000001001095425                  1   00
RN1059                468241000082002000005686000000001001095428                  1   00
RN1058DSET            468241003369002000005686000000001001095425                  1   00
FN2285                4682410000700020000056870000000010010649AISIN               1   00
FN2354                4682410000700020000056870000000010010649LUCAS               1   00
FN2285                4682410000700020000056880000000010010649AISIN               1   00
FN2354                4682410000700020000056880000000010010649LUCAS               1   00
RN1058                468241000082002000005688000000001001095425                  1   00
RN1059                468241000082002000005688000000001001095428                  1   00
RN1058DSET            468241003369002000005688000000001001095425                  1   00
FN2285                4682410000700020000056890000000010010649AISIN               1   00
FN2354                4682410000700020000056890000000010010649LUCAS               1   00
RN1058                468241000082002000005689000000001001095425                  1   00
RN1059                468241000082002000005689000000001001095428                  1   00
RN1058DSET            468241003369002000005689000000001001095425                  1   00
FN2285                4682410000700020000056900000000010010649AISIN               1   00
FN2354                4682410000700020000056900000000010010649LUCAS               1   00
FN2285                4682410000700020000056920000000010010649AISIN               1   00
FN2354                4682410000700020000056920000000010010649LUCAS               1   00
RN1058                46824100008200200000569200000000100110335                   1   00
RN1059                468241000082002000005692000000001001103332                  1   00
RN1058DSET            46824100336900200000569200000000100110335                   1   00
FN2285                4682410000700020000056930000000010010649AISIN               1   00
FN2354                4682410000700020000056930000000010010649LUCAS               1   00
RN1050                4682410000820020000057300000000010010025F 3B-X-124 108      1   00
PN0385W               468241000402002000005752000000001001060875                  1   00
PN0494                468241000402002000005752000000001001060874                  1   00
RN1361                4682410000820020000057580000000010010565176                 1   00
PN0037W               4682410004020020000057580000000010010565113                 1   00
PN0199W               4682410004020020000057580000000010010565176                 1   00
RN1863DSET            4682410033690020000057580000000010010565113                 1   00
FN2383                468241000070002000005844000000001001151406/13               1   00
RN1443                4682410000820020000058460000000010010090G'S                 1   00
RN1443                46824100008200200000584600000000100107115                   1   00
PN1845                4682410004020020000058460000000010010090G'S                 1   00
RN1443DSET            4682410033690020000058460000000010010090G'S                 1   00
RN1443DSET            46824100336900200000584600000000100107115                   1   00
PN1845S               4682410033710020000058460000000010010090G'S                 1   00
RN1443                4682410000820020000058480000000010010090G'S                 1   00
RN1443                46824100008200200000584800000000100107115                   1   00
PN1845                4682410004020020000058480000000010010090G'S                 1   00
RN1443DSET            4682410033690020000058480000000010010090G'S                 1   00
RN1443DSET            46824100336900200000584800000000100107115                   1   00
PN1845S               4682410033710020000058480000000010010090G'S                 1   00
RN43005               468241000082002000005853000000001001139516                  1   00
RN43007               468241000082002000005853000000001001115915                  1   00
PN0019W               468241000402002000005853000000001001056587                  1   00
PN0381                468241000402002000005853000000001001056546                  1   00
PN0393                468241000402002000005853000000001001139516                  1   00
PN0551                468241000402002000005853000000001001115915                  1   00
PN0019WS              468241003371002000005853000000001001056587                  1   00
RN1007                468241000082002000005854000000001001151416.08.98            1   00
RN1141                468241000082002000005854000000001001151316.08.98            1   00
PN0019W               468241000402002000005855000000001001056587                  1   00
PN0730                468241000402002000005855000000001001056546                  1   00
PN0019WS              468241003371002000005855000000001001056587                  1   00
RN1538                4682410000820020000058800000000010010565248                 1   00
RN1539                4682410000820020000058800000000010010565249                 1   00
DN1220                46824100012300200000588700000000100110335                   1   00
DN1220                468241000123002000005887000000001001151408.2012             1   00
RN1268                468241000082002000005898000000001001151408.2015             1   00
RN1268                468241000082002000005898000000002001151308.2015             1   00
RN1268                468241000082002000005898000000002001115917                  1   00
RN22002               468241000082002000005898000000001001151308.2015             1   00
RN22002               468241000082002000005898000000001001086417                  1   00
RN1268DSET            468241003369002000005898000000001001151408.2015             1   00
RN1268DSET            468241003369002000005898000000002001151308.2015             1   00
RN1268DSET            468241003369002000005898000000002001115917                  1   00
RN22002DSET           468241003369002000005898000000001001151308.2015             1   00
RN22002DSET           468241003369002000005898000000001001086417                  1   00
RN1439                4682410000820020000059010000000010010090250G, 250S          1   00
PN1547                4682410004020020000059010000000010010090250G, 250S          1   00
PN1846                4682410004020020000059010000000010010090250G, 250S          1   00
RN1439DSET            4682410033690020000059010000000010010090250G, 250S          1   00
PN1547S               4682410033710020000059010000000010010090250G, 250S          1   00
PN1846S               4682410033710020000059010000000010010090250G, 250S          1   00
PN1494                468241000402002000005903000000001001151406.2014             1   00
PN1846                468241000402002000005903000000001001151306.2014             1   00
PN1494S               468241003371002000005903000000001001151406.2014             1   00
PN1846S               468241003371002000005903000000001001151306.2014             1   00
FN2383                468241000070002000005915000000001001151406.2013             1   00
FN0554                468241000070002000005943000000001001151424.12.2011          1   00
RN1179                46824100008200200000594300000000100111971ZQ                 1   00
RN1179                46824100008200200000594300000000200111971ZM                 1   00
RN1374                46824100008200200000594300000000100111971ZE                 1   00
RN1374                46824100008200200000594300000000200111971ZP                 1   00
RN33005               46824100008200200000594300000000100111971KQ                 1   00
RN33005               46824100008200200000594300000000200111971KX                 1   00
PN0019W               46824100040200200000594300000000100111971KQ                 1   00
PN0019W               46824100040200200000594300000000200111971KX                 1   00
PN0148W               46824100040200200000594300000000100111971ZM                 1   00
PN0148W               46824100040200200000594300000000200111971ZQ                 1   00
PN0348W               46824100040200200000594300000000100111971ZE                 1   00
PN0348W               46824100040200200000594300000000200111971ZP                 1   00
RN1374DSET            46824100336900200000594300000000100111971ZE                 1   00
RN1374DSET            46824100336900200000594300000000200111971ZP                 1   00
RN33005DSET           46824100336900200000594300000000100111971KQ                 1   00
RN33005DSET           46824100336900200000594300000000200111971KX                 1   00
PN0019WS              46824100337100200000594300000000100111971KX                 1   00
PN0019WS              46824100337100200000594300000000200111971KQ                 1   00
PN0348WS              46824100337100200000594300000000100111971ZE                 1   00
PN0348WS              46824100337100200000594300000000200111971ZP                 1   00
FN6701                468241000070002000005986000000001001151409/98               1   00
FN6880                468241000070002000005986000000001001151310/98               1   00
FN1225                468241000070002000005988000000001001151408/99               1   00
FN22001               468241000070002000005988000000001001151308/99               1   00
FN1225                468241000070002000005989000000001001151408/99               1   00
FN22001               468241000070002000005989000000001001151308/99               1   00
FN1225                468241000070002000005990000000001001151408/99               1   00
FN22001               468241000070002000005990000000001001151308/99               1   00
FN7757                468241000070002000005996000000001001071454                  1   00
RN1010                46824100008200200000599600000000100107145                   1   00
RN1091                468241000082002000005996000000001001071454                  1   00
RN1529                46824100008200200000599600000000100107145                   1   00
DN1403                468241000123002000005996000000001001071454                  1   00
PN7460                46824100040200200000599600000000100107145                   1   00
PN7493                468241000402002000005996000000001001071454                  1   00
PN7501                46824100040200200000599600000000100107145                   1   00
FN0625                46824100141900200000599600000000100107145                   1   00
RN1010DSET            46824100336900200000599600000000100107145                   1   00
RN1529DSET            46824100336900200000599600000000100107145                   1   00
PN7460S               46824100337100200000599600000000100107145                   1   00
PN7493S               468241003371002000005996000000001001071454                  1   00
PN7501S               46824100337100200000599600000000100107145                   1   00
RN43005               468241000082002000006014000000001001139516                  1   00
RN43007               468241000082002000006014000000001001115915                  1   00
PN0019W               468241000402002000006014000000001001056587                  1   00
PN0381                468241000402002000006014000000001001056546                  1   00
PN0393                468241000402002000006014000000001001139516                  1   00
PN0551                468241000402002000006014000000001001115915                  1   00
PN0019WS              468241003371002000006014000000001001056587                  1   00
RN1589                468241000082002000006278000000001001064916''                1   00
RN1756                468241000082002000006278000000001001064916,5''              1   00
RN1765                468241000082002000006278000000001001056546                  1   00
RN1770                468241000082002000006278000000001001056546                  1   00
RN1771                468241000082002000006278000000001001056587                  1   00
RN1904                468241000082002000006278000000001001064917,5''              1   00
PN0461                468241000402002000006278000000001001056587                  1   00
PN0462                468241000402002000006278000000001001064916''                1   00
PN0463                468241000402002000006278000000001001056546                  1   00
PN0483                468241000402002000006278000000001001064916,5'', 17,5''      1   00
PN0461S               468241003371002000006278000000001001056587                  1   00
PN0462S               468241003371002000006278000000001001064916''                1   00
PN0463S               468241003371002000006278000000001001056546                  1   00
RN1589                468241000082002000006279000000001001064916''                1   00
RN1756                468241000082002000006279000000001001064916,5''              1   00
RN1765                468241000082002000006279000000001001056546                  1   00
RN1770                468241000082002000006279000000001001056546                  1   00
RN1771                468241000082002000006279000000001001056587                  1   00
RN1904                468241000082002000006279000000001001064917,5''              1   00
PN0461                468241000402002000006279000000001001056587                  1   00
PN0462                468241000402002000006279000000001001064916''                1   00
PN0463                468241000402002000006279000000001001056546                  1   00
PN0483                468241000402002000006279000000001001064916,5'', 17,5''      1   00
PN0461S               468241003371002000006279000000001001056587                  1   00
PN0462S               468241003371002000006279000000001001064916''                1   00
PN0463S               468241003371002000006279000000001001056546                  1   00
RN2287                468241000082002000006300000000001001071160                  1   00
RN2287                468241000082002000006300000000001001151429.08.2012          1   00
FN0664                468241001419002000006300000000001001151408.11.2010          1   00
FN0691                4682410014190020000063000000000010011320113                 1   00
FN0697                468241001419002000006300000000001001151308.11.2010          1   00
FN0697                4682410014190020000063000000000010011321112                 1   00
RN2287                468241000082002000006302000000001001071160                  1   00
RN2287                468241000082002000006302000000001001151429.08.2012          1   00
FN0664                468241001419002000006302000000001001151408.11.2010          1   00
FN0691                4682410014190020000063020000000010011320113                 1   00
FN0697                468241001419002000006302000000001001151308.11.2010          1   00
FN0697                4682410014190020000063020000000010011321112                 1   00
RN1227                46824100008200200000633900000000100111971KJ                 1   00
RN1374                46824100008200200000633900000000100111971ZE                 1   00
RN1377                46824100008200200000633900000000100111971ZA                 1   00
RN33004               46824100008200200000633900000000100111971KS                 1   00
PN0349                46824100040200200000633900000000100111971KJ                 1   00
PN0550                46824100040200200000633900000000100111971KS                 1   00
RN1227DSET            46824100336900200000633900000000100111971KJ                 1   00
RN1374DSET            46824100336900200000633900000000100111971ZE                 1   00
RN1377DSET            46824100336900200000633900000000100111971ZA                 1   00
RN33004DSET           46824100336900200000633900000000100111971KS                 1   00
PN0349S               46824100337100200000633900000000100111971KJ                 1   00
RN1746H               468241000082002000006348000000001001056587                  1   00
RN1857H               468241000082002000006348000000001001056546                  1   00
RN1857H               468241000082002000006348000000001001086419                  1   00
PN0019W               468241000402002000006348000000001001056587                  1   00
PN0473                468241000402002000006348000000001001056546                  1   00
PN0019WS              468241003371002000006348000000001001056587                  1   00
RN1746H               468241000082002000006360000000001001056587                  1   00
PN0019W               468241000402002000006360000000001001056587                  1   00
PN0473                468241000402002000006360000000001001056546                  1   00
PN0019WS              468241003371002000006360000000001001056587                  1   00
RN2287                468241000082002000006648000000001001071160                  1   00
FN0664                468241001419002000006648000000001001151422.11.2010          1   00
FN0697                468241001419002000006648000000001001151322.11.2010          1   00
DN1629                468241000123002000006675000000001001071450                  1   00
DN1629                46824100012300200000667500000000100110607                   1   00
DN1629                468241000123002000006691000000001001071450                  1   00
DN1629                46824100012300200000669100000000100110607                   1   00
DN1629                468241000123002000006695000000001001071450                  1   00
DN1629                46824100012300200000669500000000100110607                   1   00
DN1629                468241000123002000006696000000001001071450                  1   00
DN1629                46824100012300200000669600000000100110607                   1   00
DN1629                468241000123002000006698000000001001071450                  1   00
DN1629                46824100012300200000669800000000100110607                   1   00
RN1478                468241000082002000006760000000001001151308.1993             1   00
RN1478                468241000082002000006761000000001001151308.1993             1   00
RN1905SET             4682410000820020000067620000000010011542S212A               1   00
RN1070                468241000082002000006768000000001001151308.1996             1   00
RN1461                468241000082002000006768000000001001151408.1996             1   00
RN1461                468241000082002000006768000000001001060813                  1   00
RN1461                46824100008200200000676800000000100107140                   1   00
RN1532                468241000082002000006768000000001001151408.1996             1   00
RN1532                468241000082002000006768000000001001060812                  1   00
PN0461                468241000402002000006803000000001001056587                  1   00
PN0463                468241000402002000006803000000001001056546                  1   00
PN0461S               468241003371002000006803000000001001056587                  1   00
PN0463S               468241003371002000006803000000001001056546                  1   00
PN0461                468241000402002000006915000000001001056587                  1   00
PN0463                468241000402002000006915000000001001056546                  1   00
PN0461S               468241003371002000006915000000001001056587                  1   00
PN0463S               468241003371002000006915000000001001056546                  1   00
PN0461                468241000402002000006918000000001001056587                  1   00
PN0463                468241000402002000006918000000001001056546                  1   00
PN0461S               468241003371002000006918000000001001056587                  1   00
PN0463S               468241003371002000006918000000001001056546                  1   00
PN0461                468241000402002000006921000000001001056587                  1   00
PN0463                468241000402002000006921000000001001056546                  1   00
PN0461S               468241003371002000006921000000001001056587                  1   00
PN0463S               468241003371002000006921000000001001056546                  1   00
PN0461                468241000402002000006932000000001001056587                  1   00
PN0463                468241000402002000006932000000001001056546                  1   00
PN0461S               468241003371002000006932000000001001056587                  1   00
PN0463S               468241003371002000006932000000001001056546                  1   00
RN1259                46824100008200200000697800000000100107115                   1   00
RN1618                468241000082002000006978000000001001071132                  1   00
PN8802                46824100040200200000697800000000100107115                   1   00
PN8807                46824100040200200000697800000000100107115                   1   00
PN8808                468241000402002000006978000000001001071132                  1   00
PN8809                468241000402002000006978000000001001071132                  1   00
RN1618DSET            468241003369002000006978000000001001071132                  1   00
PN8802S               46824100337100200000697800000000100107115                   1   00
PN8807S               46824100337100200000697800000000100107115                   1   00
PN8808S               468241003371002000006978000000001001071132                  1   00
PN8809S               468241003371002000006978000000001001071132                  1   00
RN1394                46824100008200200000700300000000100107115                   1   00
RN1394                468241000082002000007003000000001001071139                  1   00
RN1394                468241000082002000007003000000001001071123                  1   00
RN1538                46824100008200200000700300000000100109045                   1   00
RN1538                468241000082002000007003000000001001090439                  1   00
RN1538                468241000082002000007003000000001001090423                  1   00
RN1539                46824100008200200000700300000000100107115                   1   00
RN1539                468241000082002000007003000000001001071139                  1   00
RN1539                468241000082002000007003000000001001071123                  1   00
RN1707                46824100008200200000700300000000100109045                   1   00
RN1707                468241000082002000007003000000001001090439                  1   00
RN1707                468241000082002000007003000000001001090423                  1   00
RN11001               468241000082002000007067000000001001064913''                1   00
RN11001DSET           468241003369002000007067000000001001064913''                1   00
RN11001               468241000082002000007068000000001001064913''                1   00
RN11001DSET           468241003369002000007068000000001001064913''                1   00
RN11001               468241000082002000007072000000001001064913''                1   00
RN11001DSET           468241003369002000007072000000001001064913''                1   00
PN0376                4682410004020020000072730000000010011321106                 1   00
FN6701                46824100007000200000729800000000100107140                   1   00
RN1011                46824100008200200000729800000000100107140                   1   00
RN1106                468241000082002000007298000000001001071450                  1   00
FN6704                468241001419002000007298000000001001071450                  1   00
RN1011DSET            46824100336900200000729800000000100107140                   1   00
DN1503                468241000123002000007305000000001001071450                  1   00
PN0539                468241000402002000007305000000001001151423.03.2010          1   00
PN0591                468241000402002000007305000000001001151323.03.2010          1   00
PN0633                4682410004020020000073370000000010010122BREMBO              1   00
PN1077                468241000402002000007350000000001001115913                  1   00
PN1281                468241000402002000007350000000001001115914                  1   00
PN0633                4682410004020020000074050000000010010122BREMBO              1   00
RN1711                468241000082002000007421000000001001004032                  1   00
PN0633                468241000402002000007421000000001001004032                  1   00
PN11002               468241000402002000007421000000001001004023                  1   00
RN1709                4682410000820020000074590000000010010025A174199             1   00
RN1709                468241000082002000007459000000001001151312.12.2012          1   00
RN1700DSET            4682410033690020000074590000000010010026A174198             1   00
RN1700DSET            468241003369002000007459000000001001151412.12.2012          1   00
RN1709DSET            4682410033690020000074590000000010010025A174199             1   00
RN1709DSET            468241003369002000007459000000001001151312.12.2012          1   00
PN0557                468241000402002000007475000000001001060879                  1   00
PN0745                468241000402002000007475000000001001060897                  1   00
PN31012               468241000402002000007475000000001001060879                  1   00
PN31012S              468241003371002000007475000000001001060879                  1   00
RN31001               4682410000820020000075180000000010010565176                 1   00
RN1794DSET            4682410033690020000075180000000010010565113                 1   00
RN31001DSET           4682410033690020000075180000000010010565176                 1   00
RN1463                4682410000820020000075190000000010010565176                 1   00
RN1464                4682410000820020000075190000000010010565113                 1   00
RN1708                4682410000820020000075190000000010010565113                 1   00
RN1795                4682410000820020000075190000000010010565176                 1   00
PN0395W               4682410004020020000075190000000010010565113                 1   00
PN0452W               4682410004020020000075190000000010010565176                 1   00
RN1463DSET            4682410033690020000075190000000010010565176                 1   00
RN1464DSET            4682410033690020000075190000000010010565113                 1   00
PN0395WS              4682410033710020000075190000000010010565113                 1   00
PN0452WS              4682410033710020000075190000000010010565176                 1   00
RN1464                4682410000820020000075220000000010010565113                 1   00
RN1705SET             4682410000820020000075220000000010010565176                 1   00
RN1464DSET            4682410033690020000075220000000010010565113                 1   00
RN1464                4682410000820020000075390000000010010565113                 1   00
RN1705SET             4682410000820020000075390000000010010565176                 1   00
RN1464DSET            4682410033690020000075390000000010010565113                 1   00
RN1971                46824100008200200000774200000000100100254D-X-005001         1   00
PN0017                46824100040200200000774200000000100100264D-X-004999         1   00
PN0019W               46824100040200200000774200000000100100254D-X-005001         1   00
PN0105W               46824100040200200000774200000000100100264D-X-004999         1   00
PN0138W               46824100040200200000774200000000100100254D-X-005001         1   00
PN0019WS              46824100337100200000774200000000100100254D-X-005001         1   00
PN0012W               468241000402002000007750000000001001090426                  1   00
PN0027                468241000402002000007750000000001001071126                  1   00
RN1075                468241000082002000007812000000001001151401.05.2001          1   00
RN1389                468241000082002000007812000000001001151301.05.2001          1   00
PN0300W               468241000402002000007812000000001001151401.05.2001          1   00
PN0340W               468241000402002000007812000000001001151301.05.2001          1   00
RN1011                468241000082002000007846000000001001151411/97               1   00
RN1184                468241000082002000007846000000001001151312/97               1   00
RN1184                468241000082002000007846000000001001151402/00               1   00
RN1237                468241000082002000007846000000001001151303/00               1   00
PN3233                468241000402002000007846000000001001151312/97               1   00
PN3233                468241000402002000007846000000001001151402/00               1   00
PN3271                468241000402002000007846000000001001151411/97               1   00
PN3469                468241000402002000007846000000001001151303/00               1   00
RN1011DSET            468241003369002000007846000000001001151411/97               1   00
RN1237DSET            468241003369002000007846000000001001151303/00               1   00
PN3233S               468241003371002000007846000000001001151312/97               1   00
PN3233S               468241003371002000007846000000001001151402/00               1   00
PN3469S               468241003371002000007846000000001001151303/00               1   00
RN1011                468241000082002000007848000000001001151402/00               1   00
RN1184                468241000082002000007848000000001001151402/00               1   00
RN1237                468241000082002000007848000000001001151303/00               1   00
PN3233                468241000402002000007848000000001001151402/00               1   00
PN3271                468241000402002000007848000000001001151402/00               1   00
PN3469                468241000402002000007848000000001001151303/00               1   00
RN1011DSET            468241003369002000007848000000001001151402/00               1   00
RN1237DSET            468241003369002000007848000000001001151303/00               1   00
PN3233S               468241003371002000007848000000001001151402/00               1   00
PN3469S               468241003371002000007848000000001001151303/00               1   00
RN1011                468241000082002000007849000000001001151411/97               1   00
RN1184                468241000082002000007849000000001001151312/97               1   00
RN1184                468241000082002000007849000000001001151402/00               1   00
RN1237                468241000082002000007849000000001001151303/00               1   00
PN3233                468241000402002000007849000000001001151312/97               1   00
PN3233                468241000402002000007849000000001001151402/00               1   00
PN3271                468241000402002000007849000000001001151411/97               1   00
PN3469                468241000402002000007849000000001001151303/00               1   00
RN1011DSET            468241003369002000007849000000001001151411/97               1   00
RN1237DSET            468241003369002000007849000000001001151303/00               1   00
PN3233S               468241003371002000007849000000001001151312/97               1   00
PN3233S               468241003371002000007849000000001001151402/00               1   00
PN3469S               468241003371002000007849000000001001151303/00               1   00
FN1230                468241000070002000007851000000001001151406.1999             1   00
FN1247                468241000070002000007851000000001001151301.2001             1   00
RN1039                468241000082002000007851000000001001071450                  1   00
RN1040                468241000082002000007851000000001001071450                  1   00
RN1146                46824100008200200000785100000000100107140                   1   00
RN1168                46824100008200200000785100000000100107140                   1   00
DN1313                468241000123002000007851000000001001151301.2001             1   00
PN2180                468241000402002000007851000000001001071450                  1   00
PN2230                46824100040200200000785100000000100107140                   1   00
FN1230                468241000070002000007852000000001001151406.1999             1   00
FN1247                468241000070002000007852000000001001151301.2001             1   00
RN1039                468241000082002000007852000000001001071450                  1   00
RN1040                468241000082002000007852000000001001071450                  1   00
RN1146                46824100008200200000785200000000100107140                   1   00
RN1168                46824100008200200000785200000000100107140                   1   00
DN1313                468241000123002000007852000000001001151301.2001             1   00
PN2180                468241000402002000007852000000001001071450                  1   00
PN2230                46824100040200200000785200000000100107140                   1   00
RN1039                46824100008200200000785500000000100107115                   1   00
RN1040                468241000082002000007855000000001001071132                  1   00
RN1040                468241000082002000007855000000001001151404.1998             1   00
RN1146                468241000082002000007855000000001001071132                  1   00
RN1168                468241000082002000007855000000001001071132                  1   00
RN1168                468241000082002000007855000000001001151304.1998             1   00
RN1817                46824100008200200000785500000000100107115                   1   00
PN0227                468241000402002000007855000000001001071132                  1   00
PN0227                468241000402002000007855000000001001151306.1999             1   00
PN2176                46824100040200200000785500000000100107115                   1   00
PN2180                468241000402002000007855000000001001071132                  1   00
PN2180                468241000402002000007855000000001001151406.1999             1   00
PN2214                468241000402002000007855000000001001071132                  1   00
PN2224                46824100040200200000785500000000100107115                   1   00
PN2224                468241000402002000007855000000001001151411.2000             1   00
PN2467                46824100040200200000785500000000100107115                   1   00
PN2467                468241000402002000007855000000001001151311.2000             1   00
FN1230                468241000070002000007856000000001001151404.1998             1   00
FN1247                468241000070002000007856000000001001151301.2001             1   00
RN1039                468241000082002000007856000000001001071450                  1   00
